:020000040800F2
:10000000400B0020A10100089B2400082D1F0008C0
:1000100099240008BF140008672A000800000000A7
:100020000000000000000000000000001D29000882
:10003000C114000800000000F72800081F2900086C
:10004000BB010008BB010008BB010008BB010008A0
:10005000BB010008BB010008BB010008BB01000890
:10006000BB010008BB010008BB010008BB01000880
:10007000BB010008BB010008BB010008BB01000870
:10008000BB010008BB010008BB010008BB01000860
:10009000BB010008BB010008BB010008BB01000850
:1000A000BB010008BB010008BB010008BB01000840
:1000B000BB010008BB010008BB010008BB01000830
:1000C000BB010008BB010008BB010008BB01000820
:1000D000BB010008BB010008BB010008BB01000810
:1000E000BB010008BB010008BB01000800F002F8DA
:1000F00000F047F80AA090E8000C82448344AAF17B
:100100000107DA4501D100F03CF8AFF2090EBAE878
:100110000F0013F0010F18BFFB1A43F0010318473B
:10012000847B0000A47B0000103A24BF78C878C10B
:10013000FAD8520724BF30C830C144BF04680C60ED
:10014000704700000023002400250026103A28BF35
:1001500078C1FBD8520728BF30C148BF0B60704739
:10016000662906F06E81002070471FB500F0A6FCDE
:1001700004000020002105F03BF9E0601FBD10B530
:1001800010BD00F09FFD1146FFF7EFFF04F07EF871
:1001900000F0BDFD03B4FFF7F2FF03BC00F0C0FDAB
:1001A0000948804709480047FEE7FEE7FEE7FEE70B
:1001B000FEE7FEE7FEE7FEE7FEE7FEE70448054947
:1001C000054A064B7047000081290008ED00000831
:1001D00040050020400B0020400700204007002081
:1001E00010B54C1084EA530404D54042C1F100011B
:1001F00038BF491E1B4204D55242C3F1000338BF29
:100200005B1E00F08AF914F0804F04D04042C1F127
:10021000000138BF491E14F0004F04D05242C3F110
:10022000000338BF5B1E10BD0FB41CB5084B06AAF7
:100230007B4469460090059800F005FC04460020C8
:10024000694600F013FC20461CBC5DF814FB00005E
:10025000390800002DE9F05F894604464FF0000A96
:10026000DFF874B1FB44C0F820A02046E16888475D
:10027000002874D0252806D0D4E901219047206AAF
:10028000401C2062F1E700265F462046E16888476F
:100290002028054607DB312D05D2781910F8200CEF
:1002A00008B10643F1E7B00701D526F00406C4F80B
:1002B0001CA00027C4F818A02A2D09D0284602F057
:1002C0005FFC38B304EB8708303DC8F8185019E0DC
:1002D00059F8041B204604EB87029161E1688847C6
:1002E000012F054618D1E069002820DA26F0200603
:1002F0001DE0D8F8180000EB800005EB4000303816
:10030000C8F818002046E1688847054602F038FC26
:100310000028EED1012F0AD02E2D08D12046E16809
:1003200088477F1C0546022F46F02006C4DBA069E3
:10033000002803DA404246F00106A061F00701D030
:1003400026F010066C2D0BD0682D09D04C2D39D01D
:100350006A2D35D0742D35D07A2D33D016E038E0A3
:10036000E1682F4620468847B842054609D16C2FE0
:1003700026D04FF48060E168064320468847054652
:1003800004E06C2F1AD04FF4807006430DB3A5F132
:100390004100192802D8203546F400664A4629460D
:1003A000204626604E46FFF7DBFE80B101280BD0C9
:1003B000F61D26F0070000F1080956E74020E4E7A3
:1003C0008020D8E70020D6E706F104094DE728464B
:1003D00052E7206ABDE8F09FA278000040EA0103DE
:1003E00010B59B070FD1042A0DD310C808C9121FDE
:1003F0009C42F8D020BA19BA884201D9012010BD18
:100400004FF0FF3010BD1AB1D30703D0521C07E0E4
:10041000002010BD10F8013B11F8014B1B1B07D148
:1004200010F8013B11F8014B1B1B01D1921EF1D1B9
:10043000184610BD02F0FF0343EA032242EA0242DB
:1004400000F01BBB4FF0000200B5134694469646E1
:10045000203922BFA0E80C50A0E80C50B1F12001D7
:10046000BFF4F7AF090728BFA0E80C5048BF0CC085
:100470005DF804EB890028BF40F8042B08BF7047E3
:1004800048BF20F8022B11F0804F18BF00F8012B55
:10049000704700004FF0013C50F8042B51F8043B2A
:1004A0009A4221D1A2EB0C03934313EACC1317D148
:1004B00050F8042B51F8043B9A4215D1A2EB0C03DF
:1004C000934313EACC130BD150F8042B51F8043B9F
:1004D0009A4209D1A2EB0C03934313EACC13DBD06D
:1004E0004FF00000704700BFD01A01BAB1FA81F195
:1004F00001F0180122FA01F0CB40C1F12001DBB27A
:10050000C0B2C01A2CFA01F3D11A914311EAC311F7
:10051000E6D1704770477047704753EA020C00F00D
:1005200069802DE9F04B4FF00006002B1FBFB3FA96
:1005300083F503FA05F424FA05F65E4012BF16436C
:10054000B2FA82F502FA05F4C5F120051EBF22FABF
:1005500005FC44EA0C04203556EA044C4FEA1444E6
:1005600018BF641C4FF000084FF00009904271EB77
:10057000030C39D3002919BFB1FA81F701FA07F644
:10058000B0FA80F700FA07F6C7F120071EBF20FA7D
:1005900007FC46EA0C062037B6FBF4FCA7EB050780
:1005A000103F07F01F0BCBF120060CFA0BFB2CFAC7
:1005B00006F644BFB3460026202FA4BF5E464FF088
:1005C000000B5BEA060C08BF4FF0010B19EB0B099F
:1005D000ABFB027C48EB0608C01B06FB02CC0BFB06
:1005E00003CC71EB0C01C1E70B460246414648467D
:1005F000BDE8F08B13B54FF000004FF00001AFF3F2
:100600000080BDE81C40704710B500F05BFA006840
:1006100010BD10B5044600F055FA046010BD7047D7
:100620002DE9FF4F0C461E464FF0FF378BB0D2E945
:100630000001DDF860800A908A46C1F30A5505B9C9
:100640003D46002108464FF00000BAF1000F00F4CB
:10065000400005DA00EB80004FF4400101EA500051
:100660004FEA9059B9F1010F00DDB9460A9850EAF6
:100670004A000ED044F61050A5F2FF3545432F1422
:10068000B8F1000F1ED07542291E1EDDC9F100020F
:100690001CE0B8F1010F4FF0000001D0302103E061
:1006A000F24305E02154401CB042FBDB30460022FF
:1006B000002121540B99C1F80880C1E900200FB036
:1006C000BDE8F08FBD1B6D1CDEE74A4600DA6942CB
:1006D00006A800F081FA06AB93E8070003AB83E8B5
:1006E000070050460A9900F022FB8DE80700A0F5AC
:1006F00000501F3800900398002D0ADD42F21F01C0
:100700004A460844002303A90390684600F08BFD85
:1007100009E0A0F500504A461F38002303A90390C2
:10072000684600F095FD8DE807000004000C03D03A
:100730004FF0FF30410800E01046B8F1000F03D041
:100740000022009215461EE0751E05D400F0BEF989
:10075000303262556D1EF9D5B3460122084302D0EE
:1007600000227F1C04E02078302801D100227F1E67
:10077000002A099784D01DE0112D07DA00F0A6F9B0
:10078000303262556D1C50EA0102F5D1084302D0A7
:100790000098C8B10EE00021681E05E0235C625C91
:1007A00063542254401E491C8142F7DBAB46A81B10
:1007B000401E0990002004F80B000B98099AC0F81D
:1007C0000880C0E9002B7AE711264FF0000857E7B0
:1007D0002DE9F04F88460446D21D22F0070191B062
:1007E000D1E90001CDE90A0102F03EF902460B9879
:1007F000C00F01D02D2007E02068810701D52B20F4
:1008000002E0202101EAC000032A099001D0072A52
:1008100005DB03464146204600F09EF90BE12078B7
:10082000800601D5E06900E00620B8F1650F814639
:1008300006D0B8F1660F18D0B8F1670F70D131E06B
:100840000020B9F1110F009001DB112301E009F143
:1008500001030AAA01A90CA8FFF7E2FEDDE90C706A
:10086000002609F10105834647E001204B46009030
:100870004FF000470AAA01A90CA8FFF7D1FEDDE955
:100880000DB00C995D46002610B909F101000D1854
:10089000B9EB050003D4C0F1FF3609F10105A5EB62
:1008A00009002BE0B9F1010F01DA4FF00109002036
:1008B000B9F1110F0090484601DD112300E0034615
:1008C0000AAA01A90CA8FFF7ABFEDDE90C704D46A2
:1008D00000268346207800070AD4AB4500DA5D463F
:1008E00001A8012D04DD411911F8011C302907D0A0
:1008F0004F4502DA17F1040F04DA012082460FE0B7
:100900006D1EEEE7002F02DCED1B3E4403E0781C79
:10091000A84200DD7D1CB81B00F1010A4FF0004722
:100920002078000703D4AA4501DB4FF0FF3A0021ED
:10093000B7F1004F0DF143088DF8431024D0022089
:100940002B23002F01DA7F422D230A21021EA0F162
:10095000010000DC5FB197FBF1FC97FBF1F201FBBA
:100960001C7C17460CF1300C08F801CDEEE7A8F11D
:10097000010003702188090501D5452100E06521AA
:10098000A0F1010800F8011C09980FA9A1EB0807C4
:10099000FF1D00B10120411901EBEA70A169384443
:1009A000081A401EA0612078C00602D42046AFF38A
:1009B0000080099828B1D4E901219047206A401CA1
:1009C00020622078C00622D52046AFF300801EE0CA
:1009D000002E04DBB34502DD01A8805D00E030207D
:1009E000D4E901219047206A401C2062761CAAF1BC
:1009F00001005FEA000A0AD100F060F8C0680168EF
:100A0000405CD4E901219047206A401C2062281EE6
:100A1000A5F10105DCDC07E0D4E9012118F8010BA0
:100A20009047206A401C2062381EA7F10107F3DCC2
:100A30002046AFF30080032011B041E601694A1C53
:100A400002610878704700B58FB0CDE9013100210F
:100A5000059105497944CDE9031011466846FFF731
:100A6000F9FB0FB000BD0000E5FFFFFF0A6802F8C8
:100A7000010B0A6070474FF000020429C0F0128099
:100A800010F0030C3FF4E0ACCCF1040CBCF1020F0D
:100A900018BF00F8012BA8BF20F8022BA1EB0C0116
:100AA000FFF7D2BC5FEAC17C24BF00F8012B00F83D
:100AB000012B48BF00F8012B704700000048704729
:100AC0000005002000487047E004002030B5B0F178
:100AD0000A024FEA900E71F100034EEA817EB0EBFC
:100AE0000E0061EB91014FEA101E4EEA017E10EB01
:100AF0000E0041EB11114FEA102E4EEA016E10EB81
:100B00000E0041EB11214FEA104E4EEA014E10EB60
:100B10000E0041EB1141401841F100014FEAD000B5
:100B200040EA41704FEAD10110EB80054FEA8104A1
:100B300044EA907444EB01046D1944EB0404521B25
:100B4000A3414FF0000348BF0A3200D530BD401C1E
:100B500041F1000130BD00002DE9F0411F4604467F
:100B600003260168072A01F4006004DB08B116A51A
:100B700005E016A503E008B115A500E015A521F0D4
:100B800010002060A069C01EA0610FB1401EA061CE
:100B90002046AFF300804FB1D4E901213846904799
:100BA000206A401C2062C01C206206E0206AFAE72E
:100BB000D4E9012115F8010B9047761EF8D22046A2
:100BC000AFF30080BDE8F0814E414E006E616E00D3
:100BD000494E4600696E66002DE9F047814616468B
:100BE0008AB0354878440DC88DE80D003248784405
:100BF000801C03AC0DC884E80D0041F69B3008440E
:100C0000372190FBF1F290FBF1F5A5F1800501FB96
:100C100012041B3C02D56442012000E00020DFF8F2
:100C200098A080460027FA44AAF1BE0A0EE0E00729
:100C30000AD03246684607EB470101230AEB8101DF
:100C400000F006FB8DE8070064107F1C002CEED13D
:100C5000194F7F44AE3F19E0E80715D007EB0410A9
:100C60000DF1180A90E80E008AE80E00C068F04204
:100C700001D1981908903246012306A903A800F073
:100C8000E7FA03AB83E807006D10641C002DE3D185
:100C90004FF0010332466946B8F1000F03A802D0B5
:100CA00000F0C1FA01E000F0D3FAC9E90001C9F887
:100CB00008200AB0BDE8F087A47000000048704723
:100CC000E00400207546FFF7F9FFAE4605006946CF
:100CD000534620F00700854618B020B5FFF76EFA9E
:100CE000BDE820404FF000064FF000074FF000082D
:100CF0004FF0000B21F00701AC46ACE8C009ACE8AE
:100D0000C009ACE8C009ACE8C0098D46704710B511
:100D10000446AFF300802046BDE81040FFF73ABA22
:100D200001491820ABBEFEE72600020070475FEACB
:100D3000400C08BF91F0000F4FEA8C234FEAC1220C
:100D400043EA51514FEA1C5018BF00F5F0404FEAFA
:100D5000300018BF41F000415FEA6C5C00F0298070
:100D6000BCF1FF3F08BF40F080407047130C06BF46
:100D700012044FF0100C4FF0000C130E04BF1202BF
:100D80000CF1080C130F04BF12010CF1040C930FAB
:100D900004BF92000CF1020CD30F04BF52000CF1FF
:100DA000010C11464FF00002A0F11F00A0EB0C0057
:100DB000704711F0004F08BF704731F000413FF419
:100DC000D5AF0B0C06BF09044FF0100C4FF0000C10
:100DD0000B0E04BF09020CF1080C0B0F04BF090134
:100DE0000CF1040C8B0F04BF89000CF1020CCB0F2B
:100DF00004BF49000CF1010CCCF12003A0EB0C0066
:100E000022FA03F302FA0CF241EA030100F10100B5
:100E1000704720F07F4C80EA030023F07F47ACEB63
:100E2000070303F57C5300F0004003F1FF032DE9B5
:100E300080494FEA154B09B44FEA144325EA0B4E9B
:100E400024EA03480FF2042606EB132749083E78EC
:100E50005FEA320203FB0667C7F5000707FB06F6E9
:100E60004FEA54374FEAD64606F1020607FB066CF6
:100E7000CCF1005C4FEA1C472CEA074C07FB06F458
:100E80000CFB06F504EB15464FEA961634BF00201E
:100E90004FF000404FEAD13706FB07FC4FEA1C4CED
:100EA0000CFB0BF7D21B03FB0CF761EB07010CFBF0
:100EB0000EF7B0EB074072EB17420CFB08F734BF9C
:100EC000A2EB0742B2EB074261EB17414FEA0C4439
:100ED0004FEA910706FB07FC4FEA1C4C0CFB0BF793
:100EE000B0EBC74072EB573203FB0CF734BFA2EBF9
:100EF000C742B2EBC74261EB57310CFB0EF7B0EBC8
:100F0000C70072EB57720CFB08F734BFA2EBC702A5
:100F1000B2EBC70261EB5771039F4FEA816141EA6F
:100F2000921104EBCC044FEAD1374FEA826206FB00
:100F300007FC42EA90124FEA80604FEA1C4C0CFB1F
:100F40000BF7D21B03FB0CF761EB07010CFB0EF751
:100F5000B0EB074072EB17420CFB08F734BFA2EB73
:100F60000742B2EB074261EB17414FEA8C554FEA5B
:100F7000910704EB9C2406FB07FC4FEA1C4C0CFB7E
:100F80000BF7B0EBC74072EB573203FB0CF734BFE3
:100F9000A2EBC742B2EBC74261EB57310CFB0EF735
:100FA000B0EBC70072EB57720CFB08F734BFA2EB33
:100FB000C702B2EBC70261EB577115EB4C254FEA44
:100FC000816141EA92114FEA82624FEAD13742EAE7
:100FD000901206FB07FC44F100044FEA80604FEAE0
:100FE0001C4C0CFB0BF7D21B03FB0CF761EB07014E
:100FF0000CFB0EF7B0EB074072EB17420CFB08F747
:1010000034BFA2EB0742B2EB074261EB174115EB8D
:101010001C154FEA813141EA92414FEA823242EA9D
:1010200090424FEA80304FEA0C7644F1000448EADF
:1010300003434EEA0B484FF0000EB2EB080C71EB85
:10104000030724BF624639464EEB0E0E4FF0000BED
:101050000018524149414BEB0B0BB2EB080C71EB02
:1010600003077BF1000B24BF624639464EEB0E0EA0
:101070004FF0000B0018524149414BEB0B0BB2EB08
:10108000080C71EB03077BF1000B24BF6246394665
:101090004EEB0E0E51EA020718BF46F0010616EBA2
:1010A0000E7655F1000254F1000103D5BDE8890127
:1010B000BDE80088BDE88901BDE80048B619524185
:1010C00041EB0101A3F10103704780807F7E7D7CAD
:1010D0007B7A7978777676757473727171706F6ECA
:1010E0006E6D6C6C6B6A6A69686867666665646475
:1010F000636362616160605F5F5E5E5D5D5C5C5BFF
:101100005B5A5A595958585757565655555554546D
:10111000535352525251515050504F4F4F4E4E4DCB
:101120004D4D4C4C4C4B4B4B4A4A4A494949484817
:101130004847474747464646454545444444444357
:1011400043434342424242414141002B9C4630D4FA
:1011500077002BD01CB54FEA370703B44FF01000CF
:101160004FF01001BAF1000F06D0BCF1000FDCBF48
:1011700040F0080040F008014FF000000FBCBDE84F
:1011800010400BF1010BBBF1010F08BF5FEA17071D
:1011900022BF12F1010211F101014FF0004143F1B0
:1011A000000300F0004043EA00007047F9D35708FD
:1011B000D0E746EA064613F1400F4FEA16461FDD18
:1011C00013F1200FDFBF16430A46002120335B4294
:1011D000BED0C3F1200746EA064602FA07F74FEAF7
:1011E000164646EA0706C3F1200722FA03F201FA7F
:1011F00007F721FA03F14FF0000342EA0702A7E7DD
:1012000046EA020646EA06464FEA164646EA01065E
:10121000BCBF46EA0646360C4FF000034FF0000212
:101220004FF0000194E72DE9804C9A46934670B444
:1012300091E8380007C831EA400C48BF34EA430C53
:1012400003D5FFF7E6FDFFF780FFF0BCBDE8008C9B
:101250002DE9804C9A46934670B491E8380007C84F
:1012600010F0804F08BF13F0804F03D100F005F855
:10127000FFF76BFFF0BCBDE8008C20F07F4780EAF1
:10128000030023F07F4C07EB0C03A3F57C5300F025
:101290000040A3F1FE0392F0000F00F0B38095F040
:1012A000000F00F077802DE901494FEA11404FEA25
:1012B000144621EA004800FB06FC24EA064708FB26
:1012C00006F607FB08F800FB07F718EB06484CEB9F
:1012D000164C4FEA124B18EB07484FEA15464CEBF9
:1012E000174022EA0B4E0BFB06FC25EA06470EFBD5
:1012F00006F607FB0EFE0BFB07F71EEB064E4CEB4C
:10130000164C4FF000061EEB074E4CEB174B18EB3C
:101310000B0840F1000018EB0E0B58EB000840F1F1
:1013200000008F1A4FF000013CBFC943661B14BF79
:10133000B5EB040C00213CBFC943F61B4FEA174430
:101340004EEA8E0E27EA04454FEA1C4704FB07626B
:101350002CEA074C05FB07F70CFB05F604FB0CFC1D
:1013600016EB074642EB174216EB0C4642EB1C42CB
:101370001BEB060658EB0202414146EA9E0601D5E8
:10138000BDE80189B619524141EB0101A3F1010306
:10139000BDE801894FEA14454FEA114724EA0546A2
:1013A00021EA074C05FB07F406FB07F70CFB06F1E7
:1013B00005FB0CFC11EB074144EB17444FEA1247C5
:1013C00011EB0C4144EB1C4422EA074C05FB07F2ED
:1013D00006FB07F70CFB06F605FB0CFC16EB0746B5
:1013E00042EB174216EB0C4642EB1C456A1854F1CF
:1013F000000148BF7047B619524141EB0101A3F10A
:101400000103704795F0000F37D04FEA11424FEAC1
:10141000144721EA024624EA074C02FB07F106FBC7
:1014200007F70CFB06F402FB0CFC14EB074441EB42
:1014300017414FEA154714EB0C4441EB1C4125EAD8
:10144000074C02FB07F506FB07F70CFB06F602FB51
:101450000CFC16EB074645EB174516EB0C4645EB27
:101460001C42121951F1000148BF7047B619524190
:1014700041EB0101A3F1010370474FEA14454FEA24
:10148000114724EA054621EA074C05FB07F106FB54
:1014900007F70CFB06F24FF0000605FB0CFC12EB05
:1014A000074241EB174112EB0C4251EB1C4148BF84
:1014B0007047921841EB0101A3F101037047FEE769
:1014C000704772B6FEE7000070B5044600F014F9EC
:1014D0000546601C02D004480078044400F00CF972
:1014E000401BA042FAD370BD0C0000202DE9F84F3C
:1014F00000240023DFF8C4914FF00F08A9F1040B7A
:1015000009F1040AABF1040ED1E00127A7403A40EB
:10151000BA4275D1DFF8A8C14D68A5EB0C06654548
:101520002BD00DDC032D34D005DC35B3012D19D0C3
:10153000022D2FD11BE0112D16D0122D2AD119E02A
:10154000B6F5881F19D006DCB6F5803F15D0B6F584
:10155000801F1FD111E0B6F5001F0ED0B6F5041F95
:1015600018D10AE0CB6815E0CB681B1D12E0CB68F0
:1015700008330FE0CB680C330CE08B6823B1012BF0
:1015800004D00823476105E0042303E00823076132
:1015900000E00023FF2A01D8054601E000F1040520
:1015A00002D84FEA840603E0A4F108064FEA860653
:1015B0002F6808FA06FC27EA0C0703FA06F647EA42
:1015C00006072F604D68ED0070D53E4DAE6946F0C0
:1015D0000106AE61AD6905F0010500953A4D24F0B4
:1015E00003067719BE68A5072D0F08FA05FC26EA41
:1015F0000C06DFF8D8C0604503D14FF0000C17E0AF
:1016000054E0DFF8CCC0604502D14FF0010C0FE090
:10161000DFF8C0C0604502D14FF0020C08E0DFF8EF
:10162000B8C0604502D14FF0030C01E04FF0040C4C
:101630000CFA05FC4CEA060CC7F808C04D68ED0230
:1016400005D5D9F800501543C9F8005004E0D9F881
:1016500000509543C9F800504D68AD0205D5DAF841
:1016600000501543CAF8005004E0DAF800509543E2
:10167000CAF800504D68AD0305D5DBF8005015439E
:10168000CBF8005004E0DBF800509543CBF8005055
:101690004D68ED0305D5DEF800501543CEF8005037
:1016A00004E0DEF800509543CEF80050641C0A6850
:1016B00032FA04F57FF429AFBDE8F88F0804014041
:1016C000000011100010024000000140000801401D
:1016D000000C0140001001400014014080680842E5
:1016E00001D00120704700207047002A01D001611D
:1016F0007047090401617047014880687047000025
:101700000C00002002488168027811448160704713
:101710000C00002010B50748016841F0100101607D
:10172000032000F069F80F2000F006F800F026F81A
:10173000002010BD0020024070B504460D4D4FF44E
:101740007A712878B1FBF0F00B490968B1FBF0F031
:1017500000F0F6FA08B1012070BD102C07D200226B
:101760002146501E00F028F86C60002070BD01205A
:1017700070BD00000C0000201800002008B50C48C7
:10178000816941F001018161816901F001010091EC
:10179000C16941F08051C161C06900F08050009082
:1017A0000449486820F0E06040F00070486008BDDF
:1017B0000010024000000140F0B40D460D4B1B68C4
:1017C000C3F30223C3F10704042C00D90424191D18
:1017D000072901D2002300E0DB1E012606FA04F1EE
:1017E000491E294099409E40761E16403143F0BC68
:1017F00001F04EB90CED00E000F00701054A106859
:101800004FF6FF03184040EA0120034908431060E7
:10181000704700000CED00E00000FA052DE9F047EC
:1018200004460D46002C17D0DFF83081D8F80000B0
:1018300000F00700A84211D2D8F8000020F00700FD
:101840002843C8F80000D8F8000000F00700A842BC
:1018500004D00120BDE8F0870120FBE72068404E5E
:10186000810712D5400703D5706840F4E0607060CE
:101870002078000703D5706840F46050706070688D
:10188000A16820F0F000084370602078C0072CD0D9
:101890006068012806D0022809D0316889070BD476
:1018A0000120D7E73168890306D40120D2E73168E7
:1018B000890101D40120CDE7716821F003010143C2
:1018C0007160FFF719FF074641F2883906E0FFF71C
:1018D00013FFC01B484501D90320BBE7706861684E
:1018E00000F00C00B0EB810FF1D1D8F8000000F04F
:1018F0000700A8420ED9D8F8000020F007002843BE
:10190000C8F80000D8F8000000F00700A84201D095
:1019100001209FE72078400705D57068E16820F432
:10192000E060084370602078000706D57068216980
:1019300020F4605040EAC100706000F019F871684E
:10194000084AC1F30311515CC840074908600748C1
:101950000068FFF7F1FE00207CE700000020024055
:1019600000100240946500081800002010000020BC
:101970000E4B59680E4801F00C02042A11D0082AB7
:101980000FD10C48C1F38342805CC9030AD5596862
:10199000084AC1F34041921E515C054A5043B0FBD6
:1019A000F1F07047044948437047000000100240BE
:1019B00000127A008465000800093D002DE9F84F07
:1019C0000446002C0ED02078D94DC0075ED0686840
:1019D000C0F3810001280BD06868C0F381000228A1
:1019E00003D00CE00120BDE8F88F6868C00306D57D
:1019F000286880034AD56068A8BB0120F3E76068C7
:101A0000B0F5803F11D0A8B1B0F5A02F1BD0286849
:101A100020F480302860286820F4802028606068E6
:101A200030B3FFF769FE06461EE0286840F48030B8
:101A30002860F4E7286820F480302860286820F4C3
:101A400080202860EBE7286840F480202860286820
:101A500040F480302860E2E7FFF74EFE801B6428E8
:101A600002D90320BFE711E028688003F4D50DE018
:101A7000FFF742FE064606E0FFF73EFE801B6428A5
:101A800001D90320AFE728688003F5D42078DFF878
:101A9000A48280074FF0010A4FF0000945D568681D
:101AA00010F00C0F07D06868C0F38100022812D133
:101AB0006868C0030FD42868800704D5206901280E
:101AC00001D001208FE72868616920F0F80040EA22
:101AD000C100286029E02069B8B1C8F800A0FFF76C
:101AE0000BFE064606E0FFF707FE801B022801D921
:101AF000032078E728688007F5D52868616920F019
:101B0000F80040EAC10028600FE0C8F80090FFF735
:101B1000F3FD064606E0FFF7EFFD801B022801D922
:101B2000032060E728688007F5D42078000726D5D1
:101B30008148A16999B1C0F800A0FFF7DDFD064614
:101B400006E0FFF7D9FD801B022801D903204AE7F0
:101B5000686A8007F5D5012000F0CEFE0FE0C0F8DE
:101B60000090FFF7C9FD064606E0FFF7C5FD801BA4
:101B7000022801D9032036E7686A8007F5D4207867
:101B8000400773D50026E869C00008D4E86940F032
:101B90008050E861E86900F0805000900126DFF88D
:101BA0009CB1DBF80000C00514D4DBF8000040F461
:101BB0008070CBF80000FFF79FFD074606E0FFF7B7
:101BC0009BFDC01B642801D903200CE7DBF8000053
:101BD000C005F4D5E068012812D0B0B105281DD0A9
:101BE000286A20F001002862286A20F00400286298
:101BF000E06841F2883B28B3FFF77EFD07461DE011
:101C0000286A40F001002862F2E7286A20F001000B
:101C10002862286A20F004002862E9E7286A40F078
:101C200004002862286A40F001002862E0E7FFF71C
:101C300063FDC01B584501D90320D4E6286A8007FC
:101C4000F5D50DE0FFF758FD074606E0FFF754FD18
:101C5000C01B584501D90320C5E6286A8007F5D482
:101C6000012E03D1E86920F08050E861E069A0B35B
:101C70006968C1F38101022946D0022805D0C8F85D
:101C80006090FFF739FD04463AE0C8F86090FFF72E
:101C900033FD064606E0FFF72FFD801B022801D921
:101CA0000320A0E628688001F5D4206AB0F5803FC3
:101CB00005D16868A16820F4003008436860D4E961
:101CC00008010843696821F4741108436860C8F882
:101CD00060A0FFF711FD044607E026E0FFF70CFDCA
:101CE000001B022801D903207DE628688001F5D574
:101CF0001BE0FFF701FD001B022801D9032072E65B
:101D000028688001F5D410E001280CD06868226AA8
:101D100000F48031914204D1616A00F4701088426D
:101D200003D001205FE601205DE600205BE60000B5
:101D30000010024000004242800442420070004015
:101D400010B5401EB0F1807F01D3012010BD4FF0CF
:101D5000E02460610F21601700F09AFE0020A0616E
:101D600007202061002010BD70B590F83C20012AAA
:101D700025D0012680F83C60022280F83D200268D0
:101D80005468936824F070050C682C4354600D4C23
:101D90000268A24208D0B2F1804F05D00A4CA2429C
:101DA00002D00A4CA24204D123F0800349681943AF
:101DB00091603C30467000210170002070BD02200F
:101DC00070BD0000002C01400004004000080040ED
:101DD00010B50446002C03D094F83D0010B107E084
:101DE000012010BD002084F83C00204600F016F8C9
:101DF000022084F83D00211D206800F0C3FD012071
:101E00003D3460726070A070E07020716071A071EC
:101E1000E07120722070002010BD000008B500683D
:101E20000649884208D10648816941F40061816110
:101E3000806900F40060009008BD0000002C0140A3
:101E40000010024070B50446002594F83C000128BB
:101E500017D0012684F83C60022084F83D002068F9
:101E6000826822F0770222F47F428260086850285C
:101E700038D00DDC202853D005DC90B3102811D1C8
:101E80004EE0022070BD30284AD040280AD13DE003
:101E9000602831D070280CD0B0F5805F03D0B0F549
:101EA000005F12D001253C34667000202070284667
:101EB00070BDCB68D1E90121206800F09FFD20684A
:101EC000816841F077018160EDE7CB68D1E90121BC
:101ED000206800F093FD2068816841F480418160B2
:101EE000E1E71DE0CA684968206800F099FD5021CB
:101EF000206800F08DFDD6E7CA684968206800F0C8
:101F0000A0FD6021206800F083FDCCE7CA68496825
:101F1000206800F085FD4021206800F079FDC2E7CF
:101F200022680146104600F073FDBCE7FEE70000A2
:101F300010B50E4C002202212046FFF7D6FB00F020
:101F400017F8012211462046FFF7CFFB00F010F8EA
:101F5000002201212046FFF7C8FB00F009F82046C7
:101F60000122BDE810400221FFF7BFBB000801407D
:101F70000020401CC0B20A28FBD3704700B585B0D2
:101F80000A48816941F008018161806900F0080018
:101F900000900320019004901120029001A90448B0
:101FA000FFF7A4FA00F0A0F805B000BD0010024051
:101FB0000008014010B50C4C012202212046FFF719
:101FC00094FBFFF7D5FF012211462046FFF78DFB5A
:101FD000FFF7CEFF002201212046FFF786FBBDE878
:101FE0001040FFF7C5BF0000000801402DE9F04197
:101FF000074600240025124E6006040E01221146F9
:102000003046FFF772FBFFF7B3FF02213046FFF7C0
:1020100065FB08B1641CE4B2002201213046FFF7E1
:1020200064FBFFF7A5FF6D1CEDB2082DE4D327B1CB
:10203000FFF77EFF2046BDE8F081FFF7BBFFF9E721
:102040000008014070B505460024164E280605D547
:10205000012202213046FFF748FB04E00022022162
:102060003046FFF742FBFFF783FF0122114630465F
:10207000FFF73BFBFFF77CFF002201213046FFF713
:1020800034FB072C04D1012202213046FFF72DFB3F
:102090006806050EFFF76CFF641CE4B2082CD5D36C
:1020A00070BD00000008014010B50E4C0122022155
:1020B0002046FFF71AFB012211462046FFF715FBC9
:1020C000FFF756FF002202212046FFF70EFBFFF725
:1020D0004FFF002201212046FFF707FBBDE810401B
:1020E000FFF746BF0008014010B50A4C002202214C
:1020F0002046FFF7FAFA012211462046FFF7F5FACB
:10210000FFF736FF20460122BDE810400221FFF70D
:10211000ECBA00000008014070B5104D0122022108
:102120002846FFF7E2FAFFF723FF0122114628466F
:10213000FFF7DBFAFFF71CFF02212846FFF7CEFA74
:1021400008B1012400E00024002201212846FFF705
:10215000CCFAFFF70DFF204670BD000000080140DB
:1021600010B5FFF70BFF80216B2000F0C1F8642051
:10217000FFF7AAF900216B2000F0BAF8032000F065
:1021800084F8002000F07CF8642000F09BF8002127
:10219000382000F0ADF800216A2000F0A9F80021F5
:1021A000232000F0A5F88021372000F0A1F8752049
:1021B00000F011F8682801D0012010BD01216B202A
:1021C00000F096F800216C2000F092F8642000F0F6
:1021D00079F8002010BD10B50446FFF765FFD02048
:1021E000FFF730FFFFF798FF2046FFF72BFFFFF7C1
:1021F00093FFFFF759FFD120FFF724FFFFF78CFF74
:102200000020FFF7F3FE0446FFF76EFF204610BDE7
:102210002DE9F04106460F4615461C46FFF744FFE0
:102220007006000EFFF70EFFFFF776FF20B1FFF7F5
:102230005BFF0120BDE8F0813846FFF703FFFFF7A1
:102240006BFFFFF731FF012000EB4600C0B2FFF744
:10225000F9FEFFF761FF08E0012D0CD00120FFF728
:10226000C5FE20706D1EEDB2641C002DF4D1FFF789
:102270003BFF0020DEE70020FFF7B8FE2070F1E70B
:10228000C006010E1C2000F033B8C006010E1B2052
:1022900000F02EB8BC2801D3012110E0622801D340
:1022A00002210CE02A2801D3032108E0142801D3DD
:1022B000042104E00A2801D3052100E006211A20A8
:1022C00000F016B810B504464FF47A70844200D975
:1022D0000446042C00D20424B0FBF4F0401EC1B22A
:1022E000192000F005F86008BDE81040FFF7D2BFE4
:1022F00070B505460C46FFF7D7FED020FFF7A2FECB
:10230000FFF70AFF18B1FFF7EFFE012070BD284666
:10231000FFF798FEFFF700FF2046FFF793FEFFF759
:10232000FBFE18B1FFF7E0FE012070BDFFF7DCFEF9
:10233000002070BD2DE9F04104460F4616461D46AB
:10234000FFF7B2FE6006000EFFF77CFEFFF7E4FE2B
:1023500020B1FFF7C9FE0120BDE8F0813846FFF744
:1023600071FEFFF7D9FE00240BE0285DFFF76AFE3F
:10237000FFF7D2FE18B1FFF7B7FE0120ECE7641CAF
:10238000E4B2B442F1D3FFF7AFFE0020E4E700006F
:102390002DE9F04385B00024019402940394049441
:1023A0001F48816941F020018161816901F02001AC
:1023B0000091816941F004018161816901F00401AA
:1023C0000091816941F008018161806900F0080095
:1023D0000090DFF85090002203214846FFF785F96E
:1023E000DFF844804FF44677002239464046FFF735
:1023F0007CF903200190012502950394022604969E
:1024000001A94846FFF772F80197029503940496D4
:1024100001A94046FFF76AF805B0BDE8F083000067
:102420000010024000080140000C014010B586B0C9
:102430000024029403940494059400940194154894
:102440001349016041F61F414160846042F20F71FF
:10245000C1600461446180218161FFF7B9FC08B16A
:10246000FFF72FF84FF48050029002A90948FFF7B8
:10247000E9FC08B1FFF725F8009401946946054886
:10248000FFF772FC002801D0FFF71BF806B010BD63
:10249000002C014088000020FEE7FEE710B5002177
:1024A000074C0022002004EBC1131A54401CC0B298
:1024B0008028FAD3491CC9B20829F3D310BD000003
:1024C000D00000202DE9F041CF1823E00446861803
:1024D0001CE07F2C18D8002916DB3F2914DCCB1711
:1024E00001EB5373DD104FEAC51C0C4D23F00703BD
:1024F0006544A1EB030815F804C0012303FA08F3AF
:102500002CEA030C05F804C0641C24B2A642E0DCEB
:10251000491C09B28F42D9DCBDE8F081D00000200F
:1025200010B500214FF47A720020401C9042FCD379
:10253000491C9142F8D3012000F0A4F9BDE81040F5
:10254000012000F0A7B970B505460024802626FAC0
:1025500004F0284201D0012000E0002000F09AF9A8
:10256000012000F08FF9002000F08CF9641CE4B227
:10257000082CECD3012000F085F9BDE87040002064
:1025800000F080B910B5012000F084F9012000F0BE
:1025900079F9002000F07EF9BDE81040002000F03D
:1025A00071B910B5002000F075F9012000F06AF94A
:1025B000BDE81040012000F06DB910B5FFF7B0FF85
:1025C000AE2000F06FF9D52000F06CF9802000F00B
:1025D00069F9A82000F066F93F2000F063F9D320E4
:1025E00000F060F9002000F05DF9402000F05AF999
:1025F000A12000F057F9C82000F054F9DA2000F0CB
:1026000051F9122000F04EF9812000F04BF9CF2053
:1026100000F048F9D92000F045F9F12000F042F926
:10262000DB2000F03FF9302000F03CF9A42000F05E
:1026300039F9A62000F036F98D2000F033F9142086
:1026400000F030F9AF2000F02DF9FFF727FFBDE8CB
:10265000104000F003B910B50C4640F0B00000F097
:1026600021F9102040EA141000F01CF904F00F00CA
:10267000BDE8104000F016B908B5203A082B0CD080
:10268000062B09D1094B02EB420203EB42020092F6
:102690000823062200F00EF808BD054B03EB0212DA
:1026A00000921023082200F005F808BD946B000882
:1026B000A46500082DE9FF4F0F46DDF834909046E1
:1026C0001D4600242B46424639460098FFF7FAFE85
:1026D0006D1EE81705EB50700121DFF888C001EB93
:1026E000E00A3BE0002035E000990D187F2D2FD83F
:1026F000F91707EB5171CA1016B221F007017B1AC6
:10270000002F03DA761E36B208331BB231190729BF
:102710000DD804FB08FB09EB000E0CEBC1121BF8F3
:102720000EB0565D0BFA03FB46EA0B065655491CE4
:1027300007290DD804FB08F609EB000B0CEBC111BF
:1027400016F80B604A5DC3F10803DE4032434A5578
:10275000401CC0B24045C7D3641CE4B2A245C1DCF2
:10276000BDE8FF8FD00000202DE9FF4F83B08146E8
:1027700017469A4600250024DFF8D8B064E000062A
:102780000AD4012128466D1C385CADB28DF80400D6
:1027900000208DF8050010E00221681C7A5D80B2EF
:1027A0008DF804203A5C002A51D0421C385C95B266
:1027B0008DF8050000208DF80600012901D00026C3
:1027C00013E009EB04009DF8042000B2534604997D
:1027D000FFF752FF04EB0A0084B235E0404601A93E
:1027E000FDF758FE68B1761CB6B2C6EBC60000EB2A
:1027F000800000EB0B0818A14046FDF74BFE0028B7
:10280000ECD1BAF1080F03D0BAF1060F1CD111E0D8
:10281000C6EBC60000EB80005844C01C009009EBDA
:102820000400102300B21A460499FFF743FF103446
:10283000A4B209E009EB040000B206233F22049988
:10284000FFF71AFFA41DA4B2785D002897D107B046
:10285000BDE8F08FCE6D00080000000070B50024C8
:10286000074D00212046FFF7F6FE05EBC41080213E
:1028700000F029F8641CE4B2082CF2D370BD00000B
:10288000D000002002464FF480710148FEF72DBFB2
:10289000000C014002464FF400710148FEF725BFCD
:1028A000000C014010B50446FFF76CFE7820FFF7DE
:1028B0004AFE0020FFF747FE2046FFF744FEBDE832
:1028C0001040FFF76EBE70B505460E46FFF75AFE84
:1028D0007820FFF738FE4020FFF735FE002404E0A3
:1028E000285DFFF730FE641CE4B2B442F8D3BDE8C3
:1028F0007040FFF756BE704708B507494FF4FA52CB
:102900000968B1FBF2F14143009100BF0098411EFC
:102910000091FAD208BD0000180000207047FEF7B1
:10292000F1BE30B58FB0282105A8FDF78BFD14212D
:102930006846FDF787FD01210591080406900024F3
:102940000794099102250C950D904FF4E0100E901C
:1029500005A8FFF733F808B1FEF7B3FD0F2000908C
:10296000019502944FF4806003900494022168461C
:10297000FEF754FF002801D0FEF7A3FD0FB030BDD5
:1029800070470000F0B50268194C1A4D1A4E4FF00E
:102990008047A04205D0B84203D0A84201D0B0423F
:1029A00003D122F070034A681A43A04205D0B8420E
:1029B00003D0A84201D0B04203D122F44073CA68C8
:1029C0001A434B6922F080021A4302608A68C2628D
:1029D0000A688262A04201D1096901630121416153
:1029E0000169C90703D0016921F001010161F0BD4E
:1029F000002C0140000400400008004010B584682D
:102A000024F47F4442EA03220A432243826010BD39
:102A1000826822F070020A4342F007018160704729
:102A200010B5036A046A24F001040462846924F086
:102A3000F00444EA021423F00A020A4384610262A9
:102A400010BD10B5036A046A24F01004046284699E
:102A500024F4704444EA023223F0A00343EA011153
:102A60008261016210BDFEE7490050EAC12018BF33
:102A700004204A0D18BF40F0010040F2FF72B2EB93
:102A8000515F08BF40F00200012808BF05207047D1
:102A90000907090E002804DB00F1E02080F800148B
:102AA000704700F00F0000F1E02080F8141D70471F
:102AB0002DE9F0414F1E00EBC7010446D1E90001AA
:102AC00015461E4637F006020DD02A46334602F060
:102AD000DFFE7F1E04EBC703D3E9002302F0D0FC26
:102AE00037F00602F1D1022F25D0042F13D0062F84
:102AF00018BFBDE8F0812A46334602F0C9FED4E98A
:102B00000A2302F0BDFC2A46334602F0C1FED4E996
:102B1000082302F0B5FC2A46334602F0B9FED4E998
:102B2000062302F0ADFC2A46334602F0B1FED4E99A
:102B3000042302F0A5FC2A46334602F0A9FED4E99C
:102B4000022302F09DFC2A46334602F0A1FED4E99E
:102B50000023BDE8F04102F093BC012203F0A5BCC4
:102B600002F08EBC002213461046114602F038BD1A
:102B7000024A0020110703F098BC000001FDFFFF8E
:102B800030380A2801D20120704700207047000029
:102B90002DE9FE4F074688460025684601F090F86B
:102BA00000246FF00F0AE946012657F8240058F870
:102BB0002410401A00D5404203F0D6FA514603F0E3
:102BC000A2FC59F8241011F0FF4F0ED003F0CEF9FB
:102BD0004FF07E5103F0C0FB0B4920F000408842CB
:102BE0000BDD06FA04F0054307E0084908440849EC
:102BF000884202D306FA04F00543641C032CD4DB9C
:102C00002846BDE8FE8F0000295C0F3E666666C15F
:102C10009A99D9002DE9F04D8D4F21F0004A86B0E8
:102C200005460C46BA452ADBAAEB070028430AD022
:102C30008848824501DC1AD1CDB106B02846BDE8EE
:102C4000F04DFFF78ABF844A844B284602F020FEED
:102C500007460E46824A834B2846214602F018FE5C
:102C600006B03A463346BDE8F04D02F009BC0120FB
:102C7000FDF7CFFC06B0BDE8F04DFFF773BF7A4813
:102C8000824542DABAF1795F0BDA2846FFF7ECFEAB
:102C9000042808BFFFF76CFF284606B02146BDE8B0
:102CA000F08D2A460B46104602F0F2FD834602469E
:102CB0006E480E460B4606217844FFF7F9FE5A4649
:102CC000334602F0E5FD804669488A465A46334657
:102CD00004217844FFF7ECFE5A46334602F0D8FD53
:102CE00000223B4602F0CCFB02460B4640465146D2
:102CF00002F076FC2A46234602F0CAFD06B02A46B8
:102D00002346BDE8F04D02F0BBBB284624F000414D
:102D100000223D463B4602F0B9FE4FF0FF3203F081
:102D2000C4FB0646024653480F460B46062178442C
:102D3000FFF7BEFE32463B4602F0AAFDCDE9000198
:102D40004D4832463B4604217844FFF7B1FE3246F7
:102D50003B4602F09DFD00222B4602F091FB83468C
:102D600002913046394602F01DFB804643480D462D
:102D7000504517DCDDE900015A46029B02F030FCA9
:102D800042462B4602F084FD42462B4602F078FB79
:102D9000012203F08AFB304A304B02F069FF304ACF
:102DA000304B4CE04FF0000A52460B46404602F0D2
:102DB00067FBCDE9031052462B461046194602F038
:102DC00067FD32463B4602F061FEDDE9033202F068
:102DD00007FC06460F46DDE900015A46029B02F059
:102DE000FFFB8346009101223046394603F05DFB2C
:102DF000194A1A4B02F04AFE06460F460122404687
:102E0000294603F052FB5A46009B02F041FD324630
:102E10003B4602F02DFF06460F460122504629464A
:102E200003F043FB0E4DDFF858802A46434602F07C
:102E30002DFE32463B4602F029FE2A46434602F06A
:102E400025FE002CD8BF81F0004106B0BDE8F08D12
:102E50000000F03F0000F07F075C143326A6913C91
:102E6000182D4454FB21F93F0000E03F644E000060
:102E70007A4E0000EE4D0000044E00003333EF3F69
:102E8000FB21E93F2DE9F84F04460D4621F00040B3
:102E900000917349814211DC7249884201DC06D1FC
:102EA0002CB120462946BDE8F84FFFF756BE6E48C4
:102EB000002DCCBF6D496E49BDE8F88F6D49814248
:102EC00011DD6D498142D8BF4FF0FF366DDD2046E0
:102ED0002946FFF7C9FD042808BFFFF749FE204631
:102EE0002946BDE8F88F6549654F25F000458142C8
:102EF00033DD6449814219DD002632464FF08043BC
:102F00002046294602F0BCFA80468A460122204625
:102F1000294603F0CAFA00223B4602F0A9FE4246C7
:102F2000534602F05DFB04460D463EE001260022BA
:102F3000BA463B462046294602F0A2FA80460F4692
:102F4000002253462046294602F092FE42463B4666
:102F500002F046FB04460D4627E04B4981421BDD4B
:102F6000DFF828A10226002253462046294602F017
:102F70008FFC00223B4602F083FA80460F46002277
:102F800053462046294602F073FE42463B4602F075
:102F900027FB04460D4608E0032622462B46002068
:102FA0003B4902F01DFB04460D4622462B461046C7
:102FB000194602F06DFC8B46824602460B4602F033
:102FC00067FC07460246334888460B46062178448C
:102FD000FFF76EFD52465B4602F05AFC82462E48D1
:102FE0008B463A46434605217844FFF761FD3A4651
:102FF000434602F04DFC02460B46002E5046594611
:103000000CDA02F03DFA22462B4602F041FC01B0F8
:1030100022462B46BDE8F04F02F038BD02F030FAF0
:1030200022462B4602F034FC1C4A7A4402EBC603CB
:10303000D3E9002302F01CFE22462B4602F018FEC4
:10304000174A7A4402EBC603D3E9002302F01EFDBF
:10305000009A002AB8BF81F00041BDE8F88F000057
:10306000000010440000F07F182D4454FB21F93F6C
:10307000FB21F9BF0000DC3F0000203E0000F33FD1
:103080000000F03F0000E63F008003400000F83FF2
:103090000000F0BF064C0000C44B0000624B000073
:1030A0002A4B00002DE9F04D9446CCF1000423F0AA
:1030B00000464CEA0404524F46EAD4749A468846C5
:1030C00021F00042BC4206D8454240EA050442EAEB
:1030D000D474BC4204D9BDE8F04D6246FFF740BD50
:1030E000AAF14055A5F17F6555EA0C040BD00224E6
:1030F00004EAAA74434DDFF810E144EAD87452EAB6
:10310000000B04D00CE0BDE8F04DFFF7BBBE002C77
:1031100014BF012CBDE8F08D022C30D0032C32D02E
:1031200056EA0C0B0AD0BE4220D1BA4209D126F091
:10313000804622F080423346114617E000291ADB10
:1031400025E0DFF8C8B0FB44002C04BFDBE9000138
:10315000BDE8F08D012C02BFDBE9000181F00041E8
:10316000BDE8F08D022C0AD0032C0CD0BA4212D14B
:10317000B8F1000F0BDA23482549BDE8F08D284649
:103180002449BDE8F08D28467146BDE8F08D1D4804
:103190002149BDE8F08D921B12153C2AC4BF194885
:1031A0001D490EDCBAF1000FBEBF12F13C0F00202A
:1031B000014606DB624602F013FA21F00041FFF7F8
:1031C00061FE002C08BFBDE8F08D012C04BF81F02A
:1031D0000041BDE8F08D114A114B022C07D002F0DE
:1031E00047FD2A46BDE8F04D0A4B02F041BD02F012
:1031F0003FFD2A46BDE8F04D064B02F047BC0000FB
:103200000000F07F182D4454FB2109C0BE4A000085
:10321000FB21F9BFFB210940FB21F93F075C143377
:1032200026A6A13C70B50446E07800F0C00500F089
:103230003F006178094EC90707D0C30800F00701B5
:10324000491C32680AB1184690476078000703D5D8
:10325000716809B1A8098847002070BDD00400201A
:1032600008B500280CD020208DF8000028208DF80B
:10327000010030208DF8020038208DF8030004E0B2
:10328000A32204216846FDF7D5F86A46042140F6DA
:103290009E2001F0D5FF01F059FC08BD3EB5044663
:1032A00002208DF80000CA208DF80100E3208DF87F
:1032B000020009208DF803006A460421682001F00D
:1032C000BFFFA3208DF80000610609D5C0218DF84D
:1032D0000110C8218DF80210C2218DF8031005E0FD
:1032E0008DF801008DF802008DF8030014F4C07F02
:1032F00009D0C4218DF80410CC218DF80510C62109
:103300008DF8061005E08DF804008DF805008DF8A5
:1033100006008DF807008DF808008DF809006A4650
:103320000A2140F6A72001F08BFFA0074FF0D80537
:1033300003D020208DF8000001E08DF800506A468F
:10334000012140F6B62001F07BFFA00603D5012045
:1033500000F09AF802E0002000F096F814F4C07F24
:1033600020D0E0050CD5B2208DF800008B208DF820
:103370000100B6208DF802009B208DF803000BE0C1
:10338000B0208DF8000080208DF80100B4208DF869
:10339000020090208DF803006A46042140F6A22026
:1033A00001F04EFFE0074FF40B6323D0F8208DF8B7
:1033B00000006A460121184601F042FFFA21072069
:1033C00000F0ACFB072000F07BFB012000F094FB39
:1033D000642000F055FC4FF4FA7000F061FCC82145
:1033E000274800F035FB282000F04AFB0A2000F0B7
:1033F00057FB06E08DF800506A460121184601F09F
:103400001FFFA00703D5D9208DF8000001E08DF83B
:1034100000506A46012140F23D7001F011FF600743
:1034200003D5012000F05CF802E0002000F058F81D
:10343000E00603D50120FFF713FF02E00020FFF7AD
:103440000FFF104D44F00800688101F07FFB002061
:10345000A873600601D50620A87314F4C07F02D0BB
:10346000A87B801DA87314F0140F02D0A87B103025
:10347000A873A00702D0A87B001DA87300203EBD42
:1034800009E3CA02D00400200EB54FF49763002868
:103490000CD00DA0D0E900128068CDE90012029096
:1034A0006A460921184601F0CBFE0EBD09A0D0E9FD
:1034B00000128068CDE9001202906A460921184680
:1034C00001F0BEFE0EBD0000B8AAB38DB4980D3554
:1034D0005D000000B8AAAAAAB088C3C5C700000052
:1034E00008B500280CD0C0208DF80000C2208DF84F
:1034F0000100C4208DF80200C6208DF8030004E00E
:103500008B2204216846FCF795FF6A46042140F6A9
:10351000982001F095FE01F019FB08BDC8234FF477
:103520008062024940F6F63001F0C0B9146F00081D
:103530002DE9FF4F8DB01646DDE91A520746884641
:103540000024A146A5F80090DFF864B105A99BF816
:103550000E0001F06DFA4FF0FF3A18B1504611B06D
:10356000BDE8F08FBBF80A3013F0140F61D09DF85E
:1035700017009DF814109DF8162040EA01609DF890
:103580001510090441EA0221084330609DF81B1020
:103590009DF818209DF81A4041EA02619DF8192013
:1035A000120442EA0422114371609DF81F209DF825
:1035B0001C409DF81EC042EA04629DF81D40240490
:1035C00044EA0C242243B2609DF823409DF820C0B9
:1035D0009DF822B044EA0C6C9DF82140240444EA92
:1035E0000B244CEA040CC6F80CC010240014019003
:1035F00008140290101403904FEA2C400490019894
:103600000299404301FB01010398049A404302FBE5
:1036100002000844A0F17060B0F1007F05D901F00C
:1036200095FAA5F80090504699E7288840F48070F4
:103630002880590605A818D50219065D517841EA77
:103640000621A8F80010D178967841EA0621A8F85A
:1036500002105179127941EA0221A8F80410A41D40
:10366000E4B2298841F00801298013F4C07F15D005
:103670000119065D4A7842EA06223A80CA788E78B5
:1036800042EA06227A804A79097942EA0121B98020
:10369000A41DE4B2298841F070012980990702D065
:1036A0002044FFF7BFFD109800F04EFE002056E7C3
:1036B000D004002030B587B00446684600F0AEFF65
:1036C000BDF80000420CC1033C48038903F003002D
:1036D00054F820000490580702D504984042049002
:1036E000C3F3C10054F820000590980602D5059850
:1036F00040420590C3F3811054F820000690D8058D
:1037000002D50698404206900498A0FB0145C317D5
:1037100003FB015300FB0230830043EA94700490E2
:103720000598A0FB0145C31703FB015300FB0230C2
:10373000830043EA947005900698A0FB0145C317E7
:1037400003FB015100FB0210810041EA94700690D6
:103750000498000E8DF804000498000C8DF8050004
:103760000498000A8DF8060004988DF80700059863
:10377000000E8DF808000598000C8DF809000598DA
:10378000000A8DF80A0005988DF80B000698000EC7
:103790008DF80C000698000C8DF80D000698000AB4
:1037A0008DF80E0006988DF80F0001AA0C214FF439
:1037B000257001F045FD07B030BD0000D0040020A9
:1037C00030B585B0044616A1D1E900028968CDE97B
:1037D000032102904FF0FF35C82C02D9284605B0CE
:1037E00030BDC820B0FBF4F1491E080A8DF8000076
:1037F0008DF801106A46022140F2162001F020FDEA
:1038000008B12846EBE702AA0C2140F6C12001F0DE
:1038100017FD08B12846E2E7044884810020DEE76E
:10382000FEF2ABC4AAF1DFDFBBAFDFDFD0040020C4
:103830001FB53F49098901F0030250F82220019287
:103840004A0702D5019A52420192C1F3C10250F8CF
:10385000222002928A0602D5029A52420292C1F3B3
:10386000811250F822000390C80502D50398404207
:1038700003903048019981FB00218B0043EA92714B
:103880000191029981FB00218B0043EA9271029120
:10389000039981FB0001800F40EA810003900198A9
:1038A000000E8DF800000198000C8DF801000198C1
:1038B000000A8DF8020001988DF803006A46042181
:1038C0004FF4747001F0BCFC4FF0FF3410B120468F
:1038D00004B010BD0298000E8DF800000298000C94
:1038E0008DF801000298000A8DF8020002988DF808
:1038F00003006A4604214FF4757001F0A1FC08B181
:103900002046E5E70398000E8DF800000398000CB0
:103910008DF801000398000A8DF8020003988DF8D5
:1039200003006A4604214FF4767001F089FCCFE76A
:10393000D004002009E3CA0230B587B004463FA096
:10394000006804903EA0006803903EA000680290CA
:103950003DA00068019004F0030004AB195C8DF8F1
:103960001810C4F3C102995C8DF81910C4F38111C9
:103970005B5C8DF81A3003AB185C8DF81400985C12
:103980008DF81500585C8DF8160006AA032140F248
:10399000264001F055FC4FF0FF3510B1284607B026
:1039A00030BD05AA032140F22A4001F049FC08B1CC
:1039B0002846F4E7029806900198059060070BD519
:1039C0009DF8180040F001008DF818009DF81400D3
:1039D00040F001008DF81400A0060BD59DF81900E9
:1039E00040F001008DF819009DF8150040F001002D
:1039F0008DF81500E0050BD59DF81A0040F0010088
:103A00008DF81A009DF8160040F001008DF81600A0
:103A100006AA03214FF4886001F012FC08B1284681
:103A2000BDE705AA032140F2314001F009FC08B1CD
:103A30002846B4E7054804810020B0E74CCD6C006F
:103A40000CC92C003656760026466600D0040020AD
:103A500008B54FF47A7290FBF2F04843010E8DF8EE
:103A60000010010C8DF80110010A8DF802108DF87C
:103A700003006A4604214FF4AE7001F0E1FB08BD7B
:103A800008B50521B0FBF1F0010A8DF800108DF8A2
:103A900001006A4602214FF4AD7001F0D1FB08BD70
:103AA00008B50521B0FBF1F0010A8DF800108DF882
:103AB00001006A4602214FF4AC7001F0C1FB08BD61
:103AC00008B500210091C10701D030210091810784
:103AD00004D59DF8001041F00C010091400704D579
:103AE0009DF8000040F0030000906A4601214FF469
:103AF000A47001F0A5FB08BD08B500280BD0042870
:103B000000D90420401E00906A46012140F24F1067
:103B100001F096FB08BD0120F4E700002DE9FC410F
:103B20000546084669074FF0FF3602D0B0F5C86F6A
:103B300002D93046BDE8FC8102F02EFB4B4902F071
:103B400015FA0746684600F047FD9DF80000022878
:103B500007D0042814D0082821D010282ED03046B1
:103B6000E8E70E21384602F0CEFC02F0DDFA84B21E
:103B70003F49384602F024FB02F0D6FA80B22BE02F
:103B80000D21384602F0BFFC02F0CEFA84B239496A
:103B9000384602F015FB02F0C7FA80B21CE00C2197
:103BA000384602F0B0FC02F0BFFA84B2324938461F
:103BB00002F006FB02F0B8FA80B20DE00B213846A5
:103BC00002F0A1FC02F0B0FA84B22C49384602F0AF
:103BD000F7FA02F0A9FA80B2210A8DF804108DF8E4
:103BE0000540010A8DF806108DF80700E80701ACC2
:103BF00011D001AA02214FF4EA7001F021FB08B1B3
:103C0000304697E7A21C02214FF4927001F018FB96
:103C100008B130468EE7A80711D501AA02214FF45A
:103C2000EC7001F00DFB08B1304683E7A21C0221C5
:103C30004FF4947001F004FB08B130467AE768074E
:103C400011D501AA02214FF4EE7001F0F9FA08B182
:103C500030466FE7A21C02214FF4967001F0F0FA93
:103C600008B1304666E7002064E7000000004843E2
:103C7000000040460000C045000040450000C04430
:103C800008B50521B0FBF1F0010A8DF800108DF8A0
:103C900001006A4602214FF4EF7001F0D1FA08BD2D
:103CA00008B50521B0FBF1F0010A8DF800108DF880
:103CB00001006A4602214FF4ED7001F0C1FA08BD1F
:103CC0002DE9FC410546264801AB042240680D2140
:103CD0000078FEF79DFA10B10720BDE8FC819DF841
:103CE00007009DF80420C0F3011102F0E00241EA50
:103CF000D2018DF800109DF80520C0F3810102F07B
:103D0000E00241EAD2018DF801109DF8061000F0A2
:103D1000030001F0E00140EAD1008DF80200002428
:103D20006E46305D20B10F4845F824000E4F0AE082
:103D3000002045F824000CE055F82400394602F034
:103D40003FFA45F82400305D401E10F0FF0030556A
:103D5000F2D1641CE4B2032CE3D30020BDE70000E1
:103D60001C0000207B14AE3E1D5A843F2DE9F04715
:103D700088B005460C46924601208DF814000027B5
:103D80008DF81570DFF8B88305AB0222D8F8000073
:103D9000817CD8F804000078FEF7CCFA4FF0FF39A8
:103DA00018B1484608B0BDE8F087C820FDF78CFB85
:103DB0008DF81470D8F8000005AB0122C17BD8F84B
:103DC00004000078FEF7B6FA08B14846EAE7D8F8EA
:103DD000000005AB01224179D8F804000078FEF715
:103DE000A9FA08B14846DDE7D8F8000005AB012282
:103DF000817CD8F804000078FEF79CFA08B14846A8
:103E0000D0E7D8F8000005AB0122C17DD8F8040046
:103E10000078FEF78FFA08B14846C3E7D8F80000EB
:103E200005AB01220179D8F804000078FEF782FA88
:103E300008B14846B6E70C268DF81460D8F80000A3
:103E400005AB01220179D8F804000078FEF772FA78
:103E500008B14846A6E70F20FDF736FBD8F8280042
:103E6000407A8DF81400D8F8000005AB0122817863
:103E7000D8F804000078FEF75DFA08B1484691E7EB
:103E8000D8F82800007A8DF81400D8F8000005ABA7
:103E900001224178D8F804000078FEF74BFA08B107
:103EA00048467FE7BAF1000F07D0D8F82800807A9B
:103EB00040F0E0008DF8140004E0D8F82800807A83
:103EC0008DF81400D8F8000005AB01228179D8F8EC
:103ED00004000078FEF72EFA08B1484662E7BAF10E
:103EE000000F07D0D8F82800C07A40F0E0008DF825
:103EF000140002E018208DF81400D8F8000005AB7B
:103F00000122C179D8F804000078FEF713FA08B14D
:103F1000484647E7BAF1000F02D0C820FDF7D4FAAF
:103F200040208DF81400D8F8000005AB012201797B
:103F3000D8F804000078FEF7FDF908B1484631E7EB
:103F400078208DF81400D8F8000005AB01224179E3
:103F5000D8F804000078FEF7EDF908B1484621E7EB
:103F60003220FDF7B1FA8DF81470D8F8000005ABD7
:103F700001224179D8F804000078FEF7DBF908B196
:103F800048460FE7D8F8000005AB0222817AD8F83E
:103F900004000078FEF73CF908B1484602E79DF8B6
:103FA00015009DF8141040EA0120B0FBF6F0C6B2EF
:103FB000AF606F602F60A76067602760002756E0E2
:103FC000D8F8000005AB0C22C17AD8F804000078BC
:103FD000FEF71EF908B14846E4E69DF815009DF885
:103FE000141040EA012002B2ADF80C209DF8170031
:103FF0009DF8161040EA012000B2ADF80E009DF8C1
:1040000019109DF8183041EA032109B2ADF81010DB
:1040100023681A442260626810446060A068084403
:10402000A0609DF81B009DF81A1040EA012000B224
:10403000ADF804009DF81D109DF81C2041EA0221F6
:1040400009B2ADF806109DF81F209DF81E3042EA17
:10405000032212B2ADF808202B6818442860686863
:1040600008446860A8681044A8607F1CFFB2B7428B
:10407000A6D328688322C117090441EA104100042D
:104080000023FCF7ADF832460023FCF7A9F82860BE
:1040900068688322C117090441EA10410004002323
:1040A000FCF79EF832460023FCF79AF86860A8688F
:1040B0008322C117090441EA104100040023FCF7E0
:1040C0008FF832460023FCF78BF8A86020684FF485
:1040D0000065C117090441EA104100042A46002383
:1040E000FCF77EF832460023FCF77AF8206060681F
:1040F0002A46C117090441EA104100040023FCF7D5
:104100006FF832460023FCF76BF86060A0682A461F
:10411000C117090441EA104100040023FCF760F8CC
:1041200032460023FCF75CF8A060002803DDA0F510
:104130008030A06002E000F58030A060002031E611
:104140001C0000202DE9F84F81468A4600252F48A3
:104150006B46032240680D210078FEF759F810B134
:104160000720BDE8F88F9DF8000000F01F008DF8D3
:1041700000009DF8010000F01F008DF801009DF87F
:10418000020000F01F008DF8020000246F464FF07F
:10419000010859F824005AF82410401A00D540426A
:1041A00001F0E2FF6FF00F0102F0ADF90646385D55
:1041B000F8B1174ADFF85CB004E05946104601F048
:1041C000FFFF0246385D401E10F0FF003855F4D165
:1041D0001146304601F0CAFE4FF07E5102F0BCF8A5
:1041E0000D4920F0004088420BDD08FA04F0054339
:1041F00007E00A483044B0F1D97F02D908FA04F048
:104200000543641C032CC4DB2846AAE71C000020DD
:104210000000C84154E3853F295C0F3E0000E0BE2A
:1042200000B50246104600F00DF80346D01C00F021
:1042300009F843EAC003901D00F004F843EA801037
:1042400080B200BD90F90010002902DD4FF000009F
:10425000704702DA4FF00400704790F9011000290E
:1042600002DD4FF00100704702DA4FF005007047A1
:1042700090F90200002802DD4FF00200704702DAD8
:104280004FF0060070474FF007007047FDF742FA05
:10429000FEF747FBFEF77CF8FEF7C8F8FEF78DF94E
:1042A000FEF7FCF8FDF75CFF00F04EF91B4C1B4AD3
:1042B0000832111F081F00F079F8206801F0C2FDD4
:1042C00002460B4616A11948FBF7AEFF0021082352
:1042D000164A0846FEF748FAA06801F0B3FD024608
:1042E0000B4613A11148FBF79FFF08230F4A11212A
:1042F0000020FEF739FA606801F0A4FD02460B4683
:104300000EA10A48FBF790FF0823084A212100204C
:10431000FEF72AFAFEF7A2FAC9E700000000002023
:10432000503A252E32662020000000005400002064
:10433000593A252E3266202000000000523A252EE0
:104340003266202000000000704700002DE9F04197
:10435000002620F00104144D95F82400002802D016
:104360000020BDE8F081A97A4FF0FF3839B12F7CE9
:1043700021402974A14200D0464624B901E04046BC
:10438000EFE7287D18B1012000F0D2FF02E0002005
:1043900000F0CEFF2CB100F0D9FB10B12F744046D5
:1043A000DFE73046DDE700001C0000202DE9F74F75
:1043B0008EB0054606A807A9CDE900100CAB02AAED
:1043C00008A90AA8FFF7B4F818B1012011B0BDE898
:1043D000F08FBDF81C00C0057ED5029801F0C4FE28
:1043E0006FF01D04214602F08EF80646039801F096
:1043F000BBFE214602F087F80746049801F0B4FEA0
:10440000214602F080F88046059801F0ADFE214675
:1044100002F079F881460121304602F074F88346B3
:10442000414601F0CDFE82464FF04041384601F052
:10443000C7FE0446494601F0C3FE514601F02EFD79
:1044400001F000FDFEF7E6FB4FF0663A52463D4BA9
:1044500001F01EFA00F0E2FF28600121404602F060
:1044600052F841460D9001F0ABFE05462046394614
:1044700001F0A6FE294601F06FFF4FF07E5101F0DA
:104480000DFD01F0DFFC04460D465846394601F0AB
:1044900097FE834649460D9801F092FE594601F079
:1044A000FDFC01F0CFFC22462B46FEF7FBFD5246F9
:1044B000244B01F0EDF900F0B1FF0F990860494677
:1044C000484601F07DFE04464146404601F078FE34
:1044D00005463946384600E032E001F071FE834679
:1044E0003146304601F06CFE594601F0D7FC2946B2
:1044F00001F032FF214601F02FFF01F0A3FC04463A
:104500000D464946304601F05BFE064641463846B8
:1045100001F056FE314601F0C1FC012101F0F3FF2C
:1045200001F090FC22462B46FEF7BCFD5246054B9F
:1045300001F0AEF900F072FF10990860002045E725
:10454000022043E766A64C4010B5FDF717FD00F0CA
:1045500007F908B10A2010BD782000F019FEC0B29A
:1045600008B1012010BD7820FFF7F0FEC0B208B1FD
:10457000022010BD642000F0C9FDC0B208B10320C4
:1045800010BDFEF7CBFFC0B208B1042010BD11482A
:10459000FFF746FEFFF7D0F9C0B208B1052010BD05
:1045A00040F27310FEF77AFEC0B208B1062010BDCB
:1045B0006420FFF705F9C0B208B1072010BD00F074
:1045C00077FE012000F0BAFCC0B208B1092010BD8E
:1045D000002010BD480000200F4A517A002908D061
:1045E000012909D002290AD003290BD04FF0FF304E
:1045F00070470221017007E00421017004E00821E6
:10460000017001E010210170D17C11B101784900E5
:1046100001700020704700001C000020114A517AF0
:10462000002908D001290AD002290CD003290ED074
:104630004FF0FF3070474FF4804101800AE041F6AF
:104640009C71018006E04FF48051018002E04FF43C
:1046500000610180D17C11B10188490801800020EE
:10466000704700001C0000200249097C01700020F6
:10467000704700001C0000200E49097A002909D06B
:1046800001290AD002290CD003290ED00021018073
:1046900000207047FA210180FAE74FF4FA71018097
:1046A000F6E74FF47A710180F2E74FF4FA61018086
:1046B000EEE700001C0000200C49097A002908D010
:1046C000012909D002290AD003290BD04FF0FF306D
:1046D00070470749016007E00649016004E00649A8
:1046E000016001E005490160002070471C000020C6
:1046F00000000343000083423333034233338341DA
:104700000F49C97A072917D2DFE801F01604070A12
:104710000D101300BC21018010E0622101800DE02A
:104720002A2101800AE01421018007E00A2101808A
:1047300004E00521018001E0002101800020704794
:104740001C000020054991F82420002A02D04FF0D7
:10475000FF307047C9890180002070471C0000208D
:104760002DE9FC4180208DF800004F4C6B46012262
:104770002068817C60680078FDF7DCFD4FF0FF3633
:1047800010B13046BDE8FC816420FCF79DFE002599
:104790008DF8005020686B460122817C60680078AB
:1047A000FDF7C8FD08B13046ECE720686B460622ED
:1047B000817D60680078FDF72BFD08B13046E1E7A8
:1047C0009DF805009DF80310C007400F01F001019E
:1047D00040EA41019DF8010000F00100014301277A
:1047E00049B1012903D0022903D03046CAE7E77452
:1047F00014E0E57412E020686B460122C17860681D
:104800000078FDF705FD08B13046BBE79DF80000D4
:1048100000F00F0008B3042821D0E574FF2104F84C
:104820000A1F04F8021C04F8011C61704FF6FF70A7
:10483000A080A1712172A77027766576E572A572B6
:10484000E56025616561A576E576A5834FF4FA609C
:1048500000F0B2FB28B1304694E7304692E7E774A7
:10486000DCE7022000F0A4FA08B130468AE72A20EB
:1048700000F00EFC08B1304684E7322000F046FC20
:1048800008B130467EE70020FFF760FD08B13046F2
:1048900078E7002000F0C6FA08B1304672E7002041
:1048A00000F076FC00206DE71C0000202DE9FF4F92
:1048B00085B005460E461746DFF8A0804FF0FF3959
:1048C00098F82500002803D0484609B0BDE8F08FCD
:1048D0000EB1002425E04846F7E7281B102800DD2C
:1048E00010201FFA80FA30198346024651462046AE
:1048F00000F0A6FC08B14846E7E701AA5146204669
:1049000000F0ECF808B14846DFE75846524601A9E6
:10491000FBF764FD10B16FF00100D6E704EB0A006D
:1049200084B2AC42D9D3380A8DF800008DF80170FA
:10493000D8F800006B460222817ED8F80400007887
:10494000FDF7F8FC08B14846BFE7012088F82500CC
:104950000898A8F826000020B7E700001C000020F7
:104960002DE9F84304464FF0FF37282C02D938468A
:10497000BDE8F8832D4D4FF0070900268CB10120CA
:1049800000F056FB20208DF800004FF00108012CAC
:104990001CD0052C20D88DF80180052000F078FB74
:1049A00029E0002000F044FB8DF800608DF80190B4
:1049B00028686B460222817C68680078FDF7BAFCA3
:1049C00008B13846D4E72E750020D1E78DF8016094
:1049D000052000F05DFB0EE0142C06D802208DF8B7
:1049E00001000A2000F054FB05E003208DF80100CF
:1049F000142000F04DFB9DF8010009EB80108DF8AC
:104A0000010028686B460222817C68680078FDF707
:104A100091FC08B13846ABE70820A8722E7385F8E0
:104A200014800020FFF792FC0020A1E71C0000206A
:104A30002DE9F843054689461746274E4FF0FF38C3
:104A400096F8240000280DD0B07A68B130686B4623
:104A50000222817A70680078FDF7DAFB30B14046B7
:104A6000BDE8F8834046FBE74046F9E79DF80100C2
:104A70009DF8001040EA0124AC4203D200203870B7
:104A80004046EDE770684188B4EB510F12D93168A8
:104A900000786B46497C0122FDF7BAFB08B140461D
:104AA000DEE79DF80000C00604D500F04FF86FF077
:104AB0000100D5E73068EAB24B46C17A70680078E9
:104AC000FDF7A6FB08B14046CAE7B4FBF5F0401E6F
:104AD00038700020C4E700001C0000202DE9F843D6
:104AE0000E4690464FF0FF35B8F1000F10D0164F2C
:104AF000B97A79B1010A8DF80010C4B28DF801407D
:104B0000A0197C686189884206D92846BDE8F883E7
:104B10002846FBE72846F9E738686B460222017E03
:104B20002078FDF707FC08B12846EFE73868F2B2B5
:104B30004346417D78680078FDF76AFB08B1284656
:104B4000E4E70020E2E700001C000020F8B5594D22
:104B50004FF0FF36A87A00280CD000240094286873
:104B60006B460122C17B68680078FDF7E3FB18B152
:104B70003046F8BD3046F8BD28686B4601224179C1
:104B800068680078FDF7D6FB08B13046F8BD2868A4
:104B90006B460122017968680078FDF7CBFB08B10C
:104BA0003046F8BD95F8240090B30C20009028689A
:104BB0006B460122017968680078FDF7BBFB08B1FC
:104BC0003046F8BD3220FCF77FFCC0200090A87A68
:104BD000C00701D0E020009028686B4601220179CF
:104BE00068680078FDF7A6FB08B13046F8BD687C20
:104BF00010B10220009000E0009428686B4601226A
:104C0000C17B68680078FDF795FB10B13046F8BDB0
:104C10000BE0009428686B460122417968680078AF
:104C2000FDF788FBB8B33046F1E704200090286810
:104C30006B460122017968680078FDF77BFB08B1BB
:104C40003046E4E7A87C78B9A87AC0070CD0602089
:104C5000009028686B460122017968680078FDF7AA
:104C600069FB20B13046D2E740200090F1E73220C6
:104C7000FCF72AFC687C10B10120009000E0009451
:104C800028686B460122C17B68680078FDF752FBFB
:104C900010B13046BBE70BE02868064B0122417992
:104CA000686810330078FDF745FB08B13046AEE781
:104CB0000020ACE71C0000202DE9F0438BB08146BA
:104CC00088463A4D95F82400002804D0002000F0D2
:104CD00035F9012600E0002602A8FFF7CDFC04A864
:104CE000FFF77AFC6846FFF70BFD01A8FFF72AFDE6
:104CF000AF7A03A8FFF7B8FC0024002241464846DB
:104D0000FFF734F810B1641C022CF6DB022C19D02A
:104D10000024012205A908A8FFF728F810B1641C97
:104D2000022CF6DB022C0FD005A94046FDF730FF20
:104D300000F0FF0808A94846FFF704FAC0B20024B3
:104D400020B104E0002407E0002405E00124B8F1CC
:104D5000000F01D144F00204FF2028726872E8724B
:104D60004FF6FF71E981A872287401202873BDF8FD
:104D7000080000F021F99DF8100000F019F8BDF8C6
:104D8000000000F085F9BDF8040000F0BFF93846D6
:104D900000F0FEF99DF80C00FFF7D8FA16B10120DB
:104DA00000F0CCF80BB02046BDE8F0831C000020DA
:104DB00038B51B4C4FF0FF35A17A002909D00228E5
:104DC00009D004280AD008280BD010280CD0284677
:104DD00038BD284638BD0020009007E0082000902C
:104DE00004E01020009001E018200090607A9DF807
:104DF0000010B0EBD10F01D1002038BD20686B4608
:104E00000122C17960680078FDF794FA08B128465C
:104E100038BD9DF80000C0086072002038BD000059
:104E20001C000020F8B50446434DA87CA04201D1E7
:104E30000020F8BD40484FF0FF36D0E90010ACB379
:104E4000097900786B460122FDF7E2F908B1304696
:104E5000F8BD9DF8000020F02000009028686B4607
:104E60000122017968680078FDF764FA08B13046DC
:104E7000F8BD0320FCF728FB0220009095F82200E3
:104E800008B18220009095F8230020B19DF8000021
:104E900040F03000009028686B460122017D686870
:104EA0000078FDF747FAE8B33046F8BDFFE7097927
:104EB00000786B460122FDF7ABF908B13046F4E704
:104EC000A87AC00705D09DF8000040F020000090AF
:104ED00004E09DF8000020F02000009028686B4658
:104EE0000122017968680078FDF724FA08B130469C
:104EF000DBE70320FCF7E8FA95F8220010B18020E8
:104F0000009001E00020009095F8230020B19DF86A
:104F1000000040F03000009028686B46017D686812
:104F2000007800E005E00122FDF704FA08B1304600
:104F3000BBE7AC740020B8E71C00002038B51D4C5E
:104F400094F82410814201D1002038BD0025F0B131
:104F500094F82500C0B1002000F0EAF90020FFF726
:104F600061FFE08C00F0D2F8009560686B4601228A
:104F700000782321FDF7DEF9012084F8240000F0F9
:104F8000D7F9FFF7E3FD12E04FF0FF3038BD002006
:104F900000F0CEF9207C009060686B46012200781A
:104FA0002321FDF7C7F984F82450FFF7CFFD002037
:104FB00038BD00001C00002038B51C4C4FF0FF35F8
:104FC000A17A00290CD0FA280CD0B0F5FA7F0CD0C9
:104FD000B0F57A7F0CD0B0F5FA6F0CD0284638BD0A
:104FE000284638BD0020009007E00820009004E02B
:104FF0001020009001E018200090207A9DF8001009
:10500000B0EBD10F01D1002038BD20686B460122E2
:10501000817960680078FDF78DF908B1284638BDC0
:105020009DF80000C0082072002038BD1C00002040
:1050300038B50446154D95F82300A04201D1002053
:1050400038BD14B13020009001E000200090A87C11
:1050500020B19DF8000040F00200009095F8220079
:1050600020B19DF8000040F08000009028686B4659
:105070000122017D68680078FDF75CF910B14FF0FE
:10508000FF3038BD85F82340002038BD1C000020CB
:1050900038B51D4C4FF0FF35A17A002904D0BC284B
:1050A00004D30120009017E0284638BD622802D3BF
:1050B0000220009010E02A2802D3032000900BE089
:1050C000142802D30420009006E00A2802D3052009
:1050D000009001E006200090E07A9DF800108842E0
:1050E00001D1002038BD20686B46012281786068BC
:1050F0000078FDF71FF908B1284638BD9DF800007B
:10510000E072002038BD00001C000020F8B5044605
:105110001E4D4FF0FF37A87A002804D095F82400E0
:1051200018B13846F8BD3846F8BD287D50B134B1C5
:10513000282C04D8E0B2FFF713FC0020F8BD0020B3
:10514000FFF70EFC4FF47A76042C01D2042402E01F
:10515000B44200D93446B6FBF4F0401E00902868F3
:105160006B460122417868680078FDF7E3F808B1E2
:105170003846F8BD9DF80000401CB6FBF0F0E88111
:105180004008FFF785FF0020F8BD00001C0000204C
:10519000F8B5044614F0700F4FF0000602D001205D
:1051A000009004E00CB1009601E040200090234DF7
:1051B0006B4601222868817C68680078FDF7BAF8A0
:1051C0004FF0FF3710B1AE723846F8BD9DF80000C1
:1051D00020F0400028730096600601D4042000905F
:1051E000A00604D49DF8000040F002000090E00604
:1051F00004D49DF8000040F001000090200704D482
:105200009DF8000040F03800009028686B460122AD
:10521000C17C68680078FDF78DF810B1AE72384631
:10522000F8BD24B1082C02D00020FFF701FFAC72BA
:105230002E753220FCF748F90020F8BD1C00002034
:105240002DE9F8430E4690464FF0FF35B8F1000FB8
:1052500010D0164FB97A79B1010A8DF80010C4B296
:105260008DF80140A0197C686189884206D92846DA
:10527000BDE8F8832846FBE72846F9E738686B461F
:105280000222017E2078FDF755F808B12846EFE7A5
:105290003868F2B24346417D78680078FDF74AF8F5
:1052A00008B12846E4E70020E2E700001C000020E7
:1052B00010B588B002A905A8FFF7FEFC032802D0AC
:1052C000012008B010BD01A8FFF7F6F9059800F01D
:1052D0004BFF01990C4600F073FF00F009FF0590A9
:1052E000069800F041FF214600F06AFF00F000FF41
:1052F0000690079800F038FF214600F061FF00F0AB
:10530000F7FE079005A8FEF793FA6846FFF786F9BF
:10531000BDF8000002994143029103994143039172
:1053200004994143049102A8FEF7C4F90020C8E79C
:10533000F8B51B4C0023224694F8246006CA5D1E73
:10534000002E11D010B10220009000E000931078E0
:10535000C97B6B460122FCF7EDFF08B12846F8BD7A
:105360009DF80000607419E0A67A26B128B1667C29
:105370001EB10020F8BD2846F8BD10B101200090F4
:1053800000E000931078C97B6B460122FCF7D2FF46
:1053900008B12846F8BD9DF8000060740020F8BDF3
:1053A0001C0000202DE9F04106460F4600F07AFB74
:1053B000041E0D4618BF0120284320F00040C0F114
:1053C0007F6000F1E040C00F0ED0301C18BF0120FC
:1053D000384320F00040C0F17F6000F1E040C00F92
:1053E00004BF0120FBF715F920462946BDE8F081EE
:1053F00010B500290AD00878002807D0054878445D
:10540000FBF748F8002801D0002010BD024878447E
:1054100010BD0000C6280000BE28000021F0004298
:10542000A2F16052B2F5801F01F0004328BFD2F113
:105430007F6C0BD95FEA001C43EAC20242EB50705A
:1054400018BF704728BF20F001007047B2F5801FD9
:10545000BCBF184670474FEA410C1CF5001F02D232
:10546000084600F074BF70B500F0BCFA0000008977
:10547000FFF7F6BF4FF00040A0F580007047000036
:1054800010B591EA030F48BF83F0004300F1F883A1
:10549000841A71EB030C05D2121943EB0C03001BA9
:1054A00061EB0C01DFF824E14FEA1154A4EB135C2B
:1054B0001EEA430F18BF9EEA445F73D023EA0E032F
:1054C000DCF1200E21EA045143F4801332D322FA96
:1054D0000CFE10EB0E0023FA0CFE41EB0E01CCF19A
:1054E000200E03FA0EFE10EB0E0051F10001B1F593
:1054F000801FCCF1200E32D201EB045112FA0EF2D1
:10550000BDE8104058BF7047401C38BF5FEA4202F8
:1055100018BF7047002814BF20F0010041F10001BE
:105520004FEA410313F5001F38BF7047A1F1C04196
:1055300000F0A6BA012A43EB0302ACF1200CDCF127
:105540001F0E32BF4FF0000E23FA0CF310EB0300D6
:1055500041EB0451B4EB115FD0D0A1EB045101F544
:10556000801149085FEA300001EB04510ED350F17D
:10557000000038BF12FA0EFE08D1BDE81040C9E79E
:10558000401C38BF5FEA4202CAD1C3E7BDE8104001
:105590004FEA410313F5001F38BF7047A1F1C04126
:1055A00000F06EBA9EEA445F08D011EA5E0FBDE8D3
:1055B000104004BF01F0004100207047BDE81040DA
:1055C00070B500F00FFA00BF64FBBE3E0000E0FFC4
:1055D00002494FF0000000F036BF00BF0000F87F26
:1055E0002DE9C04130B4DFF8A0C23CEA111418BF65
:1055F0003CEA131400F0EC8081EA03051CEA111464
:1056000044EAD57418BF1CEA131500F0C780A4EB58
:1056100005044FF0004545EAC12145EAC32341EAAC
:10562000505143EA525304F17F74994204F5003417
:105630004FEAC0204FEAC22208BF904200F09C808F
:105640004FEA13650FF24016765D4FEA134506FBED
:1056500005F7C7F1807706FB07F74FEAD737A7FBB7
:1056600003687642C8F58038A7FB06CE38BFA8F19C
:10567000010807FB08E64FF0000EA6FB028CE6FBD4
:1056800003CEDCF1000CCEF1004E38BFAEF1010EBE
:10569000A6FB0C584FF000074FF00005E6FB0E8705
:1056A000A1FB08C6A0FB07CE16EB0E0645F10005D0
:1056B000E1FB076515F1E04E7EBFA4F580345FEA9B
:1056C00046066D4116F1800745F100054FEA1727A0
:1056D0004FEA066647EA0567A6F1DE46B6F1805F47
:1056E0004FEA15251FD9384624F0010C05EBC4718B
:1056F000BCF1FE6F01EB0C1102D8F0BCBDE80081DB
:1057000024425CBF01F5801E9EEAC47F02D4F0BC37
:10571000BDE80081244238D4F0BCA1F1C041BDE80D
:10572000004100F0ADB94FEAD22242EA43524FEABB
:10573000D323A7FB02864FEAD02040EA415007FB63
:1057400003661EEA0E0F4FEAD12105FB026658BF21
:10575000A6EB0056B6EB00564FEA520E4EEAC37E59
:1057600018EB0E0E56EB530EBDD518EB02085E413A
:105770007F1C55F10005B6E74FF480154FF0000788
:105780004FF000064FF00008ADE7F0BC4FF000000E
:1057900001F1C04101F00041BDE8008111EA0C1F98
:1057A0000CEA131500D00CE013EA0C1F00F0258062
:1057B0004FF00000F0BC81EA030101F00041BDE8B8
:1057C0000081F0BCBDE8004181EA030100F058B956
:1057D000F0BCBDE8004170B500F004F9097EFC3E64
:1057E00000F007B881EA03014FF0000001F000412A
:1057F000704781EA030100F043B9F0BCBDE8004105
:105800004FF0000021497047FFFDFBF9F7F5F4F276
:10581000F0EEEDEBE9E8E6E4E3E1E0DEDDDBDAD84B
:10582000D7D5D4D3D1D0CFCDCCCBCAC8C7C6C5C4A9
:10583000C2C1C0BFBEBDBCBBBAB9B8B7B6B5B4B3C0
:10584000B2B1B0AFAEADACABAAA9A8A8A7A6A5A4AB
:10585000A3A3A2A1A09F9F9E9D9C9C9B9A9999986F
:105860009797969595949393929191908F8F8E8E12
:105870008D8C8C8B8B8A898988888787868585849F
:1058800084838382828181800000FF070000F87F8B
:10589000DFF848C170B51CEA111E1EBF1CEA1315C3
:1058A0009EEA0C0F95EA0C0F00F06F8081EA03046A
:1058B00023EA4C134EEAD47E21EA4C1141F48011C4
:1058C00043F48013AE44A1FB024CA0FB0365AEF190
:1058D0007F7E361955EB0C05A1FB034C4CF1000300
:1058E000A0FB021C16EB0C06654153F100030942B4
:1058F00018BF46F0010613F4007F0BD14FEA0331C5
:105900004FEA0530340341EA155140EA16506FF072
:1059100003020AE04FEAC3214FEAC520F40241EA3C
:10592000555140EA56506FF0020202EB2E4201EB55
:10593000025585EACE710AD05FEA440C18BF24F004
:10594000004450F1000041F1000120EAD47040F21F
:10595000FE7C624500D270BDA84214BF4FF0804467
:105960004FF04044002E08BF0024BEF1806FA8BF56
:10597000A1F1C041BDE8704080F282804FF000008C
:1059800001F1C04101F0004170479EEA0C0F0CEAA2
:10599000131518BF95EA0C0F06D04FF0000081EAEE
:1059A000030E0EF0004170BD00F01CF88900013EAE
:1059B00000F007B800F009B84FEA430C5FEA5C5CFE
:1059C00008D081EA030100F05BB84FEA410C5FEABE
:1059D0005C5CF6D14FF00000014970470000FF0702
:1059E0000000F87F0EF1020E2EF0030E5EF8046B3D
:1059F000364205D4012A43EB030515F5001F12D8E2
:105A0000012841EB010C1CF5001F0CD80ED14FEA08
:105A1000D17C15F5001F0CEB4C0C0CF1020C08BFEF
:105A20004CEBD37C04E04FF0080C01E04FEAD37C50
:105A30000CEB4C0526FA05F606F00706B6F1040C49
:105A400006D20EEB860CBDE870404CF0010C6047AE
:105A5000DFE80CF0090B02024FF000414FF00000AC
:105A6000A1F5002170BD19461046012851EB010433
:105A700018BFD4F5001484BF002001F0004170BDB0
:105A80000808A0F500114FEA3101704791EA030FB1
:105A900010B581F000413FF5FBAC83F0004300F00E
:105AA000EFB800002DE9F04101F5801CBCF5001FA6
:105AB000C0F2C3804FEA115C21EA0C510CF1FD0CDD
:105AC00041F480115FEA5C0C0CF5C07C01D340000E
:105AD00049413DA4890241EA905187028E0E0A0C89
